{
  "contractName": "VotingDapp",
  "abi": [
    {
      "constant": true,
      "inputs": [],
      "name": "totalVotes",
      "outputs": [
        {
          "name": "",
          "type": "uint256"
        }
      ],
      "payable": false,
      "stateMutability": "view",
      "type": "function"
    },
    {
      "constant": true,
      "inputs": [
        {
          "name": "",
          "type": "uint256"
        }
      ],
      "name": "candidates",
      "outputs": [
        {
          "name": "id",
          "type": "uint256"
        },
        {
          "name": "name",
          "type": "string"
        },
        {
          "name": "voteCount",
          "type": "uint256"
        }
      ],
      "payable": false,
      "stateMutability": "view",
      "type": "function"
    },
    {
      "constant": true,
      "inputs": [],
      "name": "candidateCount",
      "outputs": [
        {
          "name": "",
          "type": "uint256"
        }
      ],
      "payable": false,
      "stateMutability": "view",
      "type": "function"
    },
    {
      "inputs": [
        {
          "name": "_cands",
          "type": "bytes32[]"
        }
      ],
      "payable": false,
      "stateMutability": "nonpayable",
      "type": "constructor"
    },
    {
      "constant": true,
      "inputs": [
        {
          "name": "_bytes32",
          "type": "bytes32"
        }
      ],
      "name": "bytes32ToStr",
      "outputs": [
        {
          "name": "",
          "type": "string"
        }
      ],
      "payable": false,
      "stateMutability": "view",
      "type": "function"
    },
    {
      "constant": false,
      "inputs": [
        {
          "name": "_name",
          "type": "string"
        }
      ],
      "name": "voteForCandidate",
      "outputs": [],
      "payable": false,
      "stateMutability": "nonpayable",
      "type": "function"
    },
    {
      "constant": false,
      "inputs": [
        {
          "name": "votes",
          "type": "uint256"
        }
      ],
      "name": "vote",
      "outputs": [
        {
          "name": "success",
          "type": "bool"
        }
      ],
      "payable": false,
      "stateMutability": "nonpayable",
      "type": "function"
    }
  ],
  "bytecode": "0x608060405234801561001057600080fd5b506040516108913803806108918339810180604052810190808051820192919050505060008082519150600090505b818160ff1610156101cb5761007c838260ff1681518110151561005e57fe5b906020019060200201516101d3640100000000026401000000009004565b6003908051906020019061009192919061029f565b506001600081548092919060010191905055506000606060405190810160405280600154815260200160038054600181600116156101000203166002900480601f0160208091040260200160405190810160405280929190818152602001828054600181600116156101000203166002900480156101505780601f1061012557610100808354040283529160200191610150565b820191906000526020600020905b81548152906001019060200180831161013357829003601f168201915b505050505081526020016000815250908060018154018082558091505090600182039060005260206000209060030201600090919290919091506000820151816000015560208201518160010190805190602001906101b092919061031f565b5060408201518160020155505050808060010191505061003f565b5050506103c4565b606080600060206040519080825280601f01601f19166020018201604052801561020c5781602001602082028038833980820191505090505b5091505b602081101561029557838160208110151561022757fe5b1a7f010000000000000000000000000000000000000000000000000000000000000002828281518110151561025857fe5b9060200101907effffffffffffffffffffffffffffffffffffffffffffffffffffffffffffff1916908160001a9053508080600101915050610210565b8192505050919050565b828054600181600116156101000203166002900490600052602060002090601f016020900481019282601f106102e057805160ff191683800117855561030e565b8280016001018555821561030e579182015b8281111561030d5782518255916020019190600101906102f2565b5b50905061031b919061039f565b5090565b828054600181600116156101000203166002900490600052602060002090601f016020900481019282601f1061036057805160ff191683800117855561038e565b8280016001018555821561038e579182015b8281111561038d578251825591602001919060010190610372565b5b50905061039b919061039f565b5090565b6103c191905b808211156103bd5760008160009055506001016103a5565b5090565b90565b6104be806103d36000396000f300608060405260043610610078576000357c0100000000000000000000000000000000000000000000000000000000900463ffffffff1680630121b93f1461007d5780630d15fd77146100c25780633477ee2e146100ed578063a9a981a3146101a1578063e89927ef146101cc578063ef0b236814610235575b600080fd5b34801561008957600080fd5b506100a8600480360381019080803590602001909291905050506102df565b604051808215151515815260200191505060405180910390f35b3480156100ce57600080fd5b506100d76102e6565b6040518082815260200191505060405180910390f35b3480156100f957600080fd5b50610118600480360381019080803590602001909291905050506102ec565b6040518084815260200180602001838152602001828103825284818151815260200191508051906020019080838360005b83811015610164578082015181840152602081019050610149565b50505050905090810190601f1680156101915780820380516001836020036101000a031916815260200191505b5094505050505060405180910390f35b3480156101ad57600080fd5b506101b66103bd565b6040518082815260200191505060405180910390f35b3480156101d857600080fd5b50610233600480360381019080803590602001908201803590602001908080601f01602080910402602001604051908101604052809392919081815260200183838082843782019150505050505091929192905050506103c3565b005b34801561024157600080fd5b5061026460048036038101908080356000191690602001909291905050506103c6565b6040518080602001828103825283818151815260200191508051906020019080838360005b838110156102a4578082015181840152602081019050610289565b50505050905090810190601f1680156102d15780820380516001836020036101000a031916815260200191505b509250505060405180910390f35b6000919050565b60025481565b6000818154811015156102fb57fe5b9060005260206000209060030201600091509050806000015490806001018054600181600116156101000203166002900480601f0160208091040260200160405190810160405280929190818152602001828054600181600116156101000203166002900480156103ad5780601f10610382576101008083540402835291602001916103ad565b820191906000526020600020905b81548152906001019060200180831161039057829003601f168201915b5050505050908060020154905083565b60015481565b50565b606080600060206040519080825280601f01601f1916602001820160405280156103ff5781602001602082028038833980820191505090505b5091505b602081101561048857838160208110151561041a57fe5b1a7f010000000000000000000000000000000000000000000000000000000000000002828281518110151561044b57fe5b9060200101907effffffffffffffffffffffffffffffffffffffffffffffffffffffffffffff1916908160001a9053508080600101915050610403565b81925050509190505600a165627a7a72305820cc91b99cba60246953737e89ded3205a4ef1c433160163980dd32da8f1c2e3420029",
  "source": "pragma solidity ^0.4.24;\n\n\ncontract VotingDapp {\n    //setup model for candidate\n    struct Candidate {\n        uint id;\n        string name;\n        uint voteCount;\n    }\n\n    Candidate[] public candidates;\n    //set a candidate\n    //get a candidate notice in solidity mapping size is unknown, cant iterate either. \n    //mapping(uint => Candidate) public candidates;\n    //set candidates count\n    uint public candidateCount;\n    uint public totalVotes;\n    string private test;\n\n    //constructor\n    constructor (bytes32[] _cands) public \n    {\n        uint candidateCounts = _cands.length;\n        for (var i = 0; i < candidateCounts; i++) {\n            test = bytes32ToStr(_cands[i]);\n            candidateCount++ ;\n            candidates.push(Candidate(candidateCount, test, 0));\n        }\n        // addCandidate(\"candidate_one\");\n        // addCandidate(\"candidate_two\");\n        // addCandidate(\"candidate_three\");\n    }\n\n    function bytes32ToStr(bytes32 _bytes32) public constant returns (string) {\n        bytes memory bytesArray = new bytes(32);\n        for (uint256 i; i < 32; i++) {\n            bytesArray[i] = _bytes32[i];\n        }\n        return string(bytesArray);\n    }     \n  \n    function addCandidate(string _name) private {\n        \n        candidateCount++ ;\n        candidates.push(Candidate(candidateCount, _name, 0));\n        //candidates[candidateCount] = Candidate(candidateCount, _name, 0);\n    }\n\n    function voteForCandidate(string _name) {\n\n    }\n\n    function vote(uint votes) returns(bool success) {\n        // totalVotes += votes;\n        // voterCount[msg.sender] += votes; // cumulative\n        // return true;\n    }\n}",
  "sourcePath": "/Users/ldh_mbpr2015/Desktop/eth_tokens/VotingDapp/contracts/VotingDapp.sol",
  "compiler": {
    "name": "solc",
    "version": "0.4.24+commit.e67f0147.Emscripten.clang"
  },
  "schemaVersion": "2.0.1",
  "updatedAt": "2018-08-22T17:58:31.196Z"
}