{
  "contractName": "VotingDapp",
  "abi": [
    {
      "constant": true,
      "inputs": [
        {
          "name": "",
          "type": "uint256"
        }
      ],
      "name": "candidates",
      "outputs": [
        {
          "name": "id",
          "type": "uint256"
        },
        {
          "name": "name",
          "type": "string"
        },
        {
          "name": "voteCount",
          "type": "uint256"
        }
      ],
      "payable": false,
      "stateMutability": "view",
      "type": "function"
    },
    {
      "constant": true,
      "inputs": [],
      "name": "candidateCount",
      "outputs": [
        {
          "name": "",
          "type": "uint256"
        }
      ],
      "payable": false,
      "stateMutability": "view",
      "type": "function"
    },
    {
      "inputs": [
        {
          "name": "_candidateList",
          "type": "bytes32[]"
        }
      ],
      "payable": false,
      "stateMutability": "nonpayable",
      "type": "constructor"
    }
  ],
  "bytecode": "0x608060405234801561001057600080fd5b50604051610427380380610427833981018060405281019080805182019291905050506100806040805190810160405280600d81526020017f63616e6469646174655f6f6e65000000000000000000000000000000000000008152506100d3640100000000026401000000009004565b6100cd6040805190810160405280600d81526020017f63616e6469646174655f74776f000000000000000000000000000000000000008152506100d3640100000000026401000000009004565b506101f4565b60016000815480929190600101919050555060606040519081016040528060015481526020018281526020016000815250600080600154815260200190815260200160002060008201518160000155602082015181600101908051906020019061013e92919061014f565b506040820151816002015590505050565b828054600181600116156101000203166002900490600052602060002090601f016020900481019282601f1061019057805160ff19168380011785556101be565b828001600101855582156101be579182015b828111156101bd5782518255916020019190600101906101a2565b5b5090506101cb91906101cf565b5090565b6101f191905b808211156101ed5760008160009055506001016101d5565b5090565b90565b610224806102036000396000f30060806040526004361061004c576000357c0100000000000000000000000000000000000000000000000000000000900463ffffffff1680633477ee2e14610051578063a9a981a314610105575b600080fd5b34801561005d57600080fd5b5061007c60048036038101908080359060200190929190505050610130565b6040518084815260200180602001838152602001828103825284818151815260200191508051906020019080838360005b838110156100c85780820151818401526020810190506100ad565b50505050905090810190601f1680156100f55780820380516001836020036101000a031916815260200191505b5094505050505060405180910390f35b34801561011157600080fd5b5061011a6101f2565b6040518082815260200191505060405180910390f35b6000602052806000526040600020600091509050806000015490806001018054600181600116156101000203166002900480601f0160208091040260200160405190810160405280929190818152602001828054600181600116156101000203166002900480156101e25780601f106101b7576101008083540402835291602001916101e2565b820191906000526020600020905b8154815290600101906020018083116101c557829003601f168201915b5050505050908060020154905083565b600154815600a165627a7a723058203577fa339e02b272905395a6dfbc8ae19148afc2bcb3e8c15eb2dbd80a282efc0029",
  "source": "pragma solidity ^0.4.24;\n\n\ncontract VotingDapp {\n    //setup model for candidate\n    struct Candidate {\n        uint id;\n        string name;\n        uint voteCount;\n    }\n\n    //set a candidate\n    //get a candidate notice in solidity mapping size is unknown, cant iterate either. \n    mapping(uint => Candidate) public candidates;\n    //set candidates count\n    uint public candidateCount;\n\n    //constructor\n    constructor (bytes32[] _candidateList) public {\n        // for (var i = 0; i < _candidateList.length; i++) {\n        //     addCandidate(_candidateList[i]);\n        // }\n        addCandidate(\"candidate_one\");\n        addCandidate(\"candidate_two\");\n    }\n\n    function addCandidate(string _name) private {\n        candidateCount++ ;\n        candidates[candidateCount] = Candidate(candidateCount, _name, 0);\n    }\n}\n",
  "sourcePath": "/Users/ldh_mbpr2015/Desktop/eth_tokens/VotingDapp/contracts/VotingDapp.sol",
  "compiler": {
    "name": "solc",
    "version": "0.4.24+commit.e67f0147.Emscripten.clang"
  },
  "schemaVersion": "2.0.1",
  "updatedAt": "2018-08-21T18:59:52.090Z"
}